{
  "contractName": "HotelBooking",
  "abi": [
    {
      "inputs": [
        {
          "internalType": "uint256",
          "name": "_pricePerNight",
          "type": "uint256"
        }
      ],
      "stateMutability": "nonpayable",
      "type": "constructor"
    },
    {
      "anonymous": false,
      "inputs": [
        {
          "indexed": false,
          "internalType": "address",
          "name": "guest",
          "type": "address"
        },
        {
          "indexed": false,
          "internalType": "uint256",
          "name": "nights",
          "type": "uint256"
        }
      ],
      "name": "BookingMade",
      "type": "event"
    },
    {
      "inputs": [
        {
          "internalType": "address",
          "name": "",
          "type": "address"
        }
      ],
      "name": "bookings",
      "outputs": [
        {
          "internalType": "uint256",
          "name": "",
          "type": "uint256"
        }
      ],
      "stateMutability": "view",
      "type": "function"
    },
    {
      "inputs": [],
      "name": "owner",
      "outputs": [
        {
          "internalType": "address payable",
          "name": "",
          "type": "address"
        }
      ],
      "stateMutability": "view",
      "type": "function"
    },
    {
      "inputs": [],
      "name": "pricePerNight",
      "outputs": [
        {
          "internalType": "uint256",
          "name": "",
          "type": "uint256"
        }
      ],
      "stateMutability": "view",
      "type": "function"
    },
    {
      "inputs": [
        {
          "internalType": "uint256",
          "name": "nights",
          "type": "uint256"
        }
      ],
      "name": "book",
      "outputs": [],
      "stateMutability": "payable",
      "type": "function"
    },
    {
      "inputs": [],
      "name": "cancel",
      "outputs": [],
      "stateMutability": "nonpayable",
      "type": "function"
    },
    {
      "inputs": [],
      "name": "withdraw",
      "outputs": [],
      "stateMutability": "nonpayable",
      "type": "function"
    }
  ],
  "bytecode": "0x608060405234801561001057600080fd5b506040516109f23803806109f2833981810160405281019061003291906100ba565b336000806101000a81548173ffffffffffffffffffffffffffffffffffffffff021916908373ffffffffffffffffffffffffffffffffffffffff16021790555080600181905550506100e7565b600080fd5b6000819050919050565b61009781610084565b81146100a257600080fd5b50565b6000815190506100b48161008e565b92915050565b6000602082840312156100d0576100cf61007f565b5b60006100de848285016100a5565b91505092915050565b6108fc806100f66000396000f3fe6080604052600436106100555760003560e01c80631116fd041461005a5780633ccfd60b146100765780638da5cb5b1461008d578063a0a934ff146100b8578063ce68ff32146100f5578063ea8a1af014610120575b600080fd5b610074600480360381019061006f919061053e565b610137565b005b34801561008257600080fd5b5061008b610288565b005b34801561009957600080fd5b506100a261035f565b6040516100af91906105ac565b60405180910390f35b3480156100c457600080fd5b506100df60048036038101906100da9190610605565b610383565b6040516100ec9190610641565b60405180910390f35b34801561010157600080fd5b5061010a61039b565b6040516101179190610641565b60405180910390f35b34801561012c57600080fd5b506101356103a1565b005b60015481610145919061068b565b3414610186576040517f08c379a000000000000000000000000000000000000000000000000000000000815260040161017d9061072a565b60405180910390fd5b6000600260003373ffffffffffffffffffffffffffffffffffffffff1673ffffffffffffffffffffffffffffffffffffffff1681526020019081526020016000205414610208576040517f08c379a00000000000000000000000000000000000000000000000000000000081526004016101ff90610796565b60405180910390fd5b80600260003373ffffffffffffffffffffffffffffffffffffffff1673ffffffffffffffffffffffffffffffffffffffff168152602001908152602001600020819055507f298d73c617ae08107e722b3fc7505199bd76b16bf6598fa8362a786b7ef82ce4338260405161027d9291906107c5565b60405180910390a150565b60008054906101000a900473ffffffffffffffffffffffffffffffffffffffff1673ffffffffffffffffffffffffffffffffffffffff163373ffffffffffffffffffffffffffffffffffffffff1614610316576040517f08c379a000000000000000000000000000000000000000000000000000000000815260040161030d9061083a565b60405180910390fd5b3373ffffffffffffffffffffffffffffffffffffffff166108fc479081150290604051600060405180830381858888f1935050505015801561035c573d6000803e3d6000fd5b50565b60008054906101000a900473ffffffffffffffffffffffffffffffffffffffff1681565b60026020528060005260406000206000915090505481565b60015481565b6000600260003373ffffffffffffffffffffffffffffffffffffffff1673ffffffffffffffffffffffffffffffffffffffff1681526020019081526020016000205411610423576040517f08c379a000000000000000000000000000000000000000000000000000000000815260040161041a906108a6565b60405180910390fd5b6000600154600260003373ffffffffffffffffffffffffffffffffffffffff1673ffffffffffffffffffffffffffffffffffffffff16815260200190815260200160002054610472919061068b565b90506000600260003373ffffffffffffffffffffffffffffffffffffffff1673ffffffffffffffffffffffffffffffffffffffff168152602001908152602001600020819055503373ffffffffffffffffffffffffffffffffffffffff166108fc829081150290604051600060405180830381858888f193505050501580156104ff573d6000803e3d6000fd5b5050565b600080fd5b6000819050919050565b61051b81610508565b811461052657600080fd5b50565b60008135905061053881610512565b92915050565b60006020828403121561055457610553610503565b5b600061056284828501610529565b91505092915050565b600073ffffffffffffffffffffffffffffffffffffffff82169050919050565b60006105968261056b565b9050919050565b6105a68161058b565b82525050565b60006020820190506105c1600083018461059d565b92915050565b60006105d28261056b565b9050919050565b6105e2816105c7565b81146105ed57600080fd5b50565b6000813590506105ff816105d9565b92915050565b60006020828403121561061b5761061a610503565b5b6000610629848285016105f0565b91505092915050565b61063b81610508565b82525050565b60006020820190506106566000830184610632565b92915050565b7f4e487b7100000000000000000000000000000000000000000000000000000000600052601160045260246000fd5b600061069682610508565b91506106a183610508565b92508282026106af81610508565b915082820484148315176106c6576106c561065c565b5b5092915050565b600082825260208201905092915050565b7f496e73756666696369656e74207061796d656e74000000000000000000000000600082015250565b60006107146014836106cd565b915061071f826106de565b602082019050919050565b6000602082019050818103600083015261074381610707565b9050919050565b7f416c726561647920626f6f6b6564000000000000000000000000000000000000600082015250565b6000610780600e836106cd565b915061078b8261074a565b602082019050919050565b600060208201905081810360008301526107af81610773565b9050919050565b6107bf816105c7565b82525050565b60006040820190506107da60008301856107b6565b6107e76020830184610632565b9392505050565b7f4f6e6c79206f776e65722063616e207769746864726177000000000000000000600082015250565b60006108246017836106cd565b915061082f826107ee565b602082019050919050565b6000602082019050818103600083015261085381610817565b9050919050565b7f4e6f20626f6f6b696e6720666f756e6400000000000000000000000000000000600082015250565b60006108906010836106cd565b915061089b8261085a565b602082019050919050565b600060208201905081810360008301526108bf81610883565b905091905056fea264697066735822122096e0248d951d2ba269e76aca09f9025a28b792406e9b3980d0bcd33b780a7eb664736f6c63430008130033",
  "immutableReferences": {},
  "source": "// SPDX-License-Identifier: MIT\r\n/*pragma solidity >=0.5.16 <0.9.0;\r\n\r\ncontract BookingRoom {\r\n    struct Reservation {\r\n        address guest;\r\n        uint checkInDate;\r\n        uint checkOutDate;\r\n        uint roomNumber;\r\n        uint totalPrice;\r\n        bool paid;\r\n    }\r\n\r\n    Reservation[] public reservations;\r\n\r\n    uint public constant PRICE_PER_NIGHT = 1 ether;\r\n\r\n    event ReservationCreated(address guest, uint checkInDate, uint checkOutDate, uint roomNumber, uint totalPrice);\r\n    event ReservationPaid(uint reservationId);\r\n\r\n    function createReservation(uint checkInDate, uint checkOutDate, uint roomNumber) public payable {\r\n        require(msg.value == (checkOutDate - checkInDate) * PRICE_PER_NIGHT, \"Invalid payment amount.\");\r\n        require(roomNumber >= 1 && roomNumber <= 10, \"Invalid room number.\");\r\n        require(checkInDate >= block.timestamp, \"Check-in date must be in the future.\");\r\n        require(checkOutDate > checkInDate, \"Check-out date must be after check-in date.\");\r\n\r\n        Reservation memory reservation = Reservation(msg.sender, checkInDate, checkOutDate, roomNumber, msg.value, false);\r\n        reservations.push(reservation);\r\n        emit ReservationCreated(msg.sender, checkInDate, checkOutDate, roomNumber, msg.value);\r\n    }\r\n\r\n    function payReservation(uint reservationId) public payable {\r\n        Reservation storage reservation = reservations[reservationId];\r\n        require(reservation.guest == msg.sender, \"Only the guest who created the reservation can pay.\");\r\n        require(reservation.paid == false, \"Reservation has already been paid.\");\r\n\r\n        reservation.paid = true;\r\n        emit ReservationPaid(reservationId);\r\n    }\r\n}\r\n*/\r\n\r\npragma solidity ^0.8.0;\r\n\r\ncontract HotelBooking {\r\n    \r\n    address payable public owner;\r\n    uint256 public pricePerNight;\r\n    mapping(address => uint256) public bookings;\r\n    \r\n    event BookingMade(address guest, uint256 nights);\r\n    \r\n    constructor(uint256 _pricePerNight) {\r\n        owner = payable(msg.sender);\r\n        pricePerNight = _pricePerNight;\r\n    }\r\n    \r\n    function book(uint256 nights) public payable {\r\n        require(msg.value == nights * pricePerNight, \"Insufficient payment\");\r\n        require(bookings[msg.sender] == 0, \"Already booked\");\r\n        bookings[msg.sender] = nights;\r\n        emit BookingMade(msg.sender, nights);\r\n    }\r\n    \r\n    function cancel() public {\r\n        require(bookings[msg.sender] > 0, \"No booking found\");\r\n        uint256 refund = bookings[msg.sender] * pricePerNight;\r\n        bookings[msg.sender] = 0;\r\n        payable(msg.sender).transfer(refund);\r\n    }\r\n    \r\n    function withdraw() public {\r\n        require(msg.sender == owner, \"Only owner can withdraw\");\r\n        payable(msg.sender).transfer(address(this).balance);\r\n    }\r\n    \r\n}\r\n\r\n\r\n",
  "sourcePath": "C:\\Users\\DELL\\Desktop\\truffleproj\\0new\\test6\\test6\\contracts\\BookingRoom.sol",
  "compiler": {
    "name": "solc",
    "version": "0.8.19+commit.7dd6d404.Emscripten.clang"
  },
  "schemaVersion": "3.4.13",
  "updatedAt": "2023-04-02T16:57:15.253Z",
  "devdoc": {
    "kind": "dev",
    "methods": {},
    "version": 1
  },
  "userdoc": {
    "kind": "user",
    "methods": {},
    "version": 1
  }
}