{
  "contractName": "Hotel",
  "abi": [
    {
      "inputs": [
        {
          "internalType": "uint256",
          "name": "_roomPrice",
          "type": "uint256"
        },
        {
          "internalType": "uint256",
          "name": "_roomAvailability",
          "type": "uint256"
        }
      ],
      "stateMutability": "nonpayable",
      "type": "constructor"
    },
    {
      "anonymous": false,
      "inputs": [
        {
          "indexed": true,
          "internalType": "address",
          "name": "_from",
          "type": "address"
        },
        {
          "indexed": false,
          "internalType": "uint256",
          "name": "_availability",
          "type": "uint256"
        }
      ],
      "name": "RoomAvailabilitySet",
      "type": "event"
    },
    {
      "anonymous": false,
      "inputs": [
        {
          "indexed": true,
          "internalType": "address",
          "name": "_from",
          "type": "address"
        },
        {
          "indexed": false,
          "internalType": "uint256",
          "name": "_price",
          "type": "uint256"
        },
        {
          "indexed": false,
          "internalType": "uint256",
          "name": "_availability",
          "type": "uint256"
        }
      ],
      "name": "RoomBooked",
      "type": "event"
    },
    {
      "inputs": [],
      "name": "owner",
      "outputs": [
        {
          "internalType": "address payable",
          "name": "",
          "type": "address"
        }
      ],
      "stateMutability": "view",
      "type": "function"
    },
    {
      "inputs": [],
      "name": "roomAvailability",
      "outputs": [
        {
          "internalType": "uint256",
          "name": "",
          "type": "uint256"
        }
      ],
      "stateMutability": "view",
      "type": "function"
    },
    {
      "inputs": [],
      "name": "roomPrice",
      "outputs": [
        {
          "internalType": "uint256",
          "name": "",
          "type": "uint256"
        }
      ],
      "stateMutability": "view",
      "type": "function"
    },
    {
      "inputs": [],
      "name": "bookRoom",
      "outputs": [],
      "stateMutability": "payable",
      "type": "function"
    },
    {
      "inputs": [],
      "name": "getRoomAvailability",
      "outputs": [
        {
          "internalType": "uint256",
          "name": "",
          "type": "uint256"
        }
      ],
      "stateMutability": "view",
      "type": "function"
    },
    {
      "inputs": [
        {
          "internalType": "uint256",
          "name": "_roomAvailability",
          "type": "uint256"
        }
      ],
      "name": "setRoomAvailability",
      "outputs": [],
      "stateMutability": "nonpayable",
      "type": "function"
    }
  ],
  "bytecode": "0x608060405234801561001057600080fd5b506040516107ea3803806107ea833981810160405281019061003291906100c2565b336000806101000a81548173ffffffffffffffffffffffffffffffffffffffff021916908373ffffffffffffffffffffffffffffffffffffffff16021790555081600181905550806002819055505050610102565b600080fd5b6000819050919050565b61009f8161008c565b81146100aa57600080fd5b50565b6000815190506100bc81610096565b92915050565b600080604083850312156100d9576100d8610087565b5b60006100e7858286016100ad565b92505060206100f8858286016100ad565b9150509250929050565b6106d9806101116000396000f3fe6080604052600436106100555760003560e01c80633435eb941461005a5780636c036162146100855780637715bd31146100b05780638da5cb5b146100db578063b55a391014610106578063de57d65914610110575b600080fd5b34801561006657600080fd5b5061006f610139565b60405161007c91906103d2565b60405180910390f35b34801561009157600080fd5b5061009a61013f565b6040516100a791906103d2565b60405180910390f35b3480156100bc57600080fd5b506100c5610145565b6040516100d291906103d2565b60405180910390f35b3480156100e757600080fd5b506100f061014f565b6040516100fd919061042e565b60405180910390f35b61010e610173565b005b34801561011c57600080fd5b506101376004803603810190610132919061047a565b6102d1565b005b60025481565b60015481565b6000600254905090565b60008054906101000a900473ffffffffffffffffffffffffffffffffffffffff1681565b60015434146101b7576040517f08c379a00000000000000000000000000000000000000000000000000000000081526004016101ae90610504565b60405180910390fd5b6000600254116101fc576040517f08c379a00000000000000000000000000000000000000000000000000000000081526004016101f390610570565b60405180910390fd5b6002600081548092919061020f906105bf565b919050555060008054906101000a900473ffffffffffffffffffffffffffffffffffffffff1673ffffffffffffffffffffffffffffffffffffffff166108fc349081150290604051600060405180830381858888f1935050505015801561027a573d6000803e3d6000fd5b503373ffffffffffffffffffffffffffffffffffffffff167f40763a36b9fee72a5307dfe9250292dfe67c51070ff948e9e944348d88e5ec2f6001546002546040516102c79291906105e8565b60405180910390a2565b60008054906101000a900473ffffffffffffffffffffffffffffffffffffffff1673ffffffffffffffffffffffffffffffffffffffff163373ffffffffffffffffffffffffffffffffffffffff161461035f576040517f08c379a000000000000000000000000000000000000000000000000000000000815260040161035690610683565b60405180910390fd5b806002819055503373ffffffffffffffffffffffffffffffffffffffff167fcb823bdb5f9273312727a4f6410545ffae51c6784148903c83d53ea1438ae9b36002546040516103ae91906103d2565b60405180910390a250565b6000819050919050565b6103cc816103b9565b82525050565b60006020820190506103e760008301846103c3565b92915050565b600073ffffffffffffffffffffffffffffffffffffffff82169050919050565b6000610418826103ed565b9050919050565b6104288161040d565b82525050565b6000602082019050610443600083018461041f565b92915050565b600080fd5b610457816103b9565b811461046257600080fd5b50565b6000813590506104748161044e565b92915050565b6000602082840312156104905761048f610449565b5b600061049e84828501610465565b91505092915050565b600082825260208201905092915050565b7f496e76616c696420616d6f756e74000000000000000000000000000000000000600082015250565b60006104ee600e836104a7565b91506104f9826104b8565b602082019050919050565b6000602082019050818103600083015261051d816104e1565b9050919050565b7f4e6f20726f6f6d7320617661696c61626c650000000000000000000000000000600082015250565b600061055a6012836104a7565b915061056582610524565b602082019050919050565b600060208201905081810360008301526105898161054d565b9050919050565b7f4e487b7100000000000000000000000000000000000000000000000000000000600052601160045260246000fd5b60006105ca826103b9565b9150600082036105dd576105dc610590565b5b600182039050919050565b60006040820190506105fd60008301856103c3565b61060a60208301846103c3565b9392505050565b7f4f6e6c79206f776e65722063616e2073657420726f6f6d20617661696c61626960008201527f6c69747900000000000000000000000000000000000000000000000000000000602082015250565b600061066d6024836104a7565b915061067882610611565b604082019050919050565b6000602082019050818103600083015261069c81610660565b905091905056fea26469706673582212200c2aa73ba538ce16a2a3bf34a9b138473ce04c179e3b71cc507802073b744d2864736f6c63430008130033",
  "immutableReferences": {},
  "source": "//SPDX-License-Identifier: MIT\r\npragma solidity ^0.8.0;\r\n\r\ncontract Hotel {\r\n  address payable public owner;\r\n  uint public roomPrice;\r\n  uint public roomAvailability;\r\n  \r\n  event RoomBooked(address indexed _from, uint _price, uint _availability);\r\n  event RoomAvailabilitySet(address indexed _from, uint _availability);\r\n\r\n  constructor(uint _roomPrice, uint _roomAvailability) {\r\n    owner = payable(msg.sender);\r\n    roomPrice = _roomPrice;\r\n    roomAvailability = _roomAvailability;\r\n  }\r\n  \r\n  function bookRoom() payable public {\r\n    require(msg.value == roomPrice, \"Invalid amount\");\r\n    require(roomAvailability > 0, \"No rooms available\");\r\n    \r\n    roomAvailability--;\r\n    owner.transfer(msg.value);\r\n\r\n    emit RoomBooked(msg.sender, roomPrice, roomAvailability);\r\n  }\r\n  \r\n  function getRoomAvailability() public view returns (uint) {\r\n    return roomAvailability;\r\n  }\r\n  \r\n  function setRoomAvailability(uint _roomAvailability) public {\r\n    require(msg.sender == owner, \"Only owner can set room availability\");\r\n    roomAvailability = _roomAvailability;\r\n\r\n    emit RoomAvailabilitySet(msg.sender, roomAvailability);\r\n  }\r\n}",
  "sourcePath": "C:\\Users\\DELL\\Desktop\\truffleproj\\0new\\test6\\test6\\contracts\\Hotel.sol",
  "compiler": {
    "name": "solc",
    "version": "0.8.19+commit.7dd6d404.Emscripten.clang"
  },
  "schemaVersion": "3.4.13",
  "updatedAt": "2023-04-02T10:55:17.034Z",
  "devdoc": {
    "kind": "dev",
    "methods": {},
    "version": 1
  },
  "userdoc": {
    "kind": "user",
    "methods": {},
    "version": 1
  }
}